{
  "transactions": [
    {
      "hash": "0xd4a855c9823117a9e408a2828f4821a1cc98c0b6e07d16866e35b910deb4ff6f",
      "transactionType": "CALL",
      "contractName": null,
      "contractAddress": "0x3ebb62994e1442e60bbd6ad336bbbf2c16291c5b",
      "function": "setSourceChains(uint16[],address[])",
      "arguments": [
        "[10003]",
        "[0x3eBB62994e1442E60bBd6ad336bbbf2c16291C5B]"
      ],
      "transaction": {
        "from": "0x4175902851f6183f1e1d9a72690d10bf6d417488",
        "to": "0x3ebb62994e1442e60bbd6ad336bbbf2c16291c5b",
        "gas": "0x101e4",
        "value": "0x0",
        "input": "0x4ce3498a000000000000000000000000000000000000000000000000000000000000004000000000000000000000000000000000000000000000000000000000000000800000000000000000000000000000000000000000000000000000000000000001000000000000000000000000000000000000000000000000000000000000271300000000000000000000000000000000000000000000000000000000000000010000000000000000000000003ebb62994e1442e60bbd6ad336bbbf2c16291c5b",
        "nonce": "0x9f",
        "chainId": "0xaa36a7"
      },
      "additionalContracts": [],
      "isFixedGasLimit": false
    },
    {
      "hash": "0x400c52d642322c2aba7c4c19b3494948ed24b784149a00e38fe10c482426ce28",
      "transactionType": "CALL",
      "contractName": null,
      "contractAddress": "0x3ebb62994e1442e60bbd6ad336bbbf2c16291c5b",
      "function": "setTargetChains(uint16[],address[])",
      "arguments": [
        "[10003]",
        "[0x3eBB62994e1442E60bBd6ad336bbbf2c16291C5B]"
      ],
      "transaction": {
        "from": "0x4175902851f6183f1e1d9a72690d10bf6d417488",
        "to": "0x3ebb62994e1442e60bbd6ad336bbbf2c16291c5b",
        "gas": "0x101e3",
        "value": "0x0",
        "input": "0xbd7b7460000000000000000000000000000000000000000000000000000000000000004000000000000000000000000000000000000000000000000000000000000000800000000000000000000000000000000000000000000000000000000000000001000000000000000000000000000000000000000000000000000000000000271300000000000000000000000000000000000000000000000000000000000000010000000000000000000000003ebb62994e1442e60bbd6ad336bbbf2c16291c5b",
        "nonce": "0xa0",
        "chainId": "0xaa36a7"
      },
      "additionalContracts": [],
      "isFixedGasLimit": false
    }
  ],
  "receipts": [
    {
      "status": "0x1",
      "cumulativeGasUsed": "0x15437f8",
      "logs": [],
      "logsBloom": "0x00000000000000000000000000000000000000000000000000000000000000000000000000000000000000000000000000000000000000000000000000000000000000000000000000000000000000000000000000000000000000000000000000000000000000000000000000000000000000000000000000000000000000000000000000000000000000000000000000000000000000000000000000000000000000000000000000000000000000000000000000000000000000000000000000000000000000000000000000000000000000000000000000000000000000000000000000000000000000000000000000000000000000000000000000000000",
      "type": "0x2",
      "transactionHash": "0xd4a855c9823117a9e408a2828f4821a1cc98c0b6e07d16866e35b910deb4ff6f",
      "transactionIndex": "0x6e",
      "blockHash": "0xd74b0ad4e4cc3ebd0a71c21334055e4e45b09093e245947a47472933b55ec856",
      "blockNumber": "0x5b5880",
      "gasUsed": "0xbab6",
      "effectiveGasPrice": "0x1482c662c",
      "from": "0x4175902851f6183f1e1d9a72690d10bf6d417488",
      "to": "0x3ebb62994e1442e60bbd6ad336bbbf2c16291c5b",
      "contractAddress": null
    },
    {
      "status": "0x1",
      "cumulativeGasUsed": "0x154f2ad",
      "logs": [],
      "logsBloom": "0x00000000000000000000000000000000000000000000000000000000000000000000000000000000000000000000000000000000000000000000000000000000000000000000000000000000000000000000000000000000000000000000000000000000000000000000000000000000000000000000000000000000000000000000000000000000000000000000000000000000000000000000000000000000000000000000000000000000000000000000000000000000000000000000000000000000000000000000000000000000000000000000000000000000000000000000000000000000000000000000000000000000000000000000000000000000",
      "type": "0x2",
      "transactionHash": "0x400c52d642322c2aba7c4c19b3494948ed24b784149a00e38fe10c482426ce28",
      "transactionIndex": "0x6f",
      "blockHash": "0xd74b0ad4e4cc3ebd0a71c21334055e4e45b09093e245947a47472933b55ec856",
      "blockNumber": "0x5b5880",
      "gasUsed": "0xbab5",
      "effectiveGasPrice": "0x1482c662c",
      "from": "0x4175902851f6183f1e1d9a72690d10bf6d417488",
      "to": "0x3ebb62994e1442e60bbd6ad336bbbf2c16291c5b",
      "contractAddress": null
    }
  ],
  "libraries": [],
  "pending": [],
  "returns": {},
  "timestamp": 1716791776,
  "chain": 11155111,
  "commit": "7bf95a8"
}