{
  "transactions": [
    {
      "hash": "0x0779ae5ab331504ddf687292bea7e72cf3cc960b49edd4590a652a270a391210",
      "transactionType": "CALL",
      "contractName": null,
      "contractAddress": "0x9f4f2a3848529215cacfd9a7d3e3b58b22844125",
      "function": "setSourceChains(uint16[],address[])",
      "arguments": [
        "[10003]",
        "[0x2Aa0489448bD52dE7B9559d0651595B244D3971C]"
      ],
      "transaction": {
        "from": "0x4175902851f6183f1e1d9a72690d10bf6d417488",
        "to": "0x9f4f2a3848529215cacfd9a7d3e3b58b22844125",
        "gas": "0xaf5f",
        "value": "0x0",
        "input": "0x4ce3498a000000000000000000000000000000000000000000000000000000000000004000000000000000000000000000000000000000000000000000000000000000800000000000000000000000000000000000000000000000000000000000000001000000000000000000000000000000000000000000000000000000000000271300000000000000000000000000000000000000000000000000000000000000010000000000000000000000002aa0489448bd52de7b9559d0651595b244d3971c",
        "nonce": "0xaf",
        "chainId": "0xaa36a7"
      },
      "additionalContracts": [],
      "isFixedGasLimit": false
    },
    {
      "hash": "0x5a9a73392e31d3934092c907b4ba2fba0e0530e464f884442f74bf76e26b7683",
      "transactionType": "CALL",
      "contractName": null,
      "contractAddress": "0x9f4f2a3848529215cacfd9a7d3e3b58b22844125",
      "function": "setTargetChains(uint16[],address[])",
      "arguments": [
        "[10003]",
        "[0x2Aa0489448bD52dE7B9559d0651595B244D3971C]"
      ],
      "transaction": {
        "from": "0x4175902851f6183f1e1d9a72690d10bf6d417488",
        "to": "0x9f4f2a3848529215cacfd9a7d3e3b58b22844125",
        "gas": "0xaf5e",
        "value": "0x0",
        "input": "0xbd7b7460000000000000000000000000000000000000000000000000000000000000004000000000000000000000000000000000000000000000000000000000000000800000000000000000000000000000000000000000000000000000000000000001000000000000000000000000000000000000000000000000000000000000271300000000000000000000000000000000000000000000000000000000000000010000000000000000000000002aa0489448bd52de7b9559d0651595b244d3971c",
        "nonce": "0xb0",
        "chainId": "0xaa36a7"
      },
      "additionalContracts": [],
      "isFixedGasLimit": false
    }
  ],
  "receipts": [
    {
      "status": "0x1",
      "cumulativeGasUsed": "0xbe504f",
      "logs": [],
      "logsBloom": "0x00000000000000000000000000000000000000000000000000000000000000000000000000000000000000000000000000000000000000000000000000000000000000000000000000000000000000000000000000000000000000000000000000000000000000000000000000000000000000000000000000000000000000000000000000000000000000000000000000000000000000000000000000000000000000000000000000000000000000000000000000000000000000000000000000000000000000000000000000000000000000000000000000000000000000000000000000000000000000000000000000000000000000000000000000000000",
      "type": "0x2",
      "transactionHash": "0x0779ae5ab331504ddf687292bea7e72cf3cc960b49edd4590a652a270a391210",
      "transactionIndex": "0x3d",
      "blockHash": "0x4e6829cfa8d470ca87e83390e7df2ed9c074f9c483abe9543ff6f42983e53ce2",
      "blockNumber": "0x5b8be6",
      "gasUsed": "0x77ea",
      "effectiveGasPrice": "0xbadea1a55",
      "from": "0x4175902851f6183f1e1d9a72690d10bf6d417488",
      "to": "0x9f4f2a3848529215cacfd9a7d3e3b58b22844125",
      "contractAddress": null
    },
    {
      "status": "0x1",
      "cumulativeGasUsed": "0xbec838",
      "logs": [],
      "logsBloom": "0x00000000000000000000000000000000000000000000000000000000000000000000000000000000000000000000000000000000000000000000000000000000000000000000000000000000000000000000000000000000000000000000000000000000000000000000000000000000000000000000000000000000000000000000000000000000000000000000000000000000000000000000000000000000000000000000000000000000000000000000000000000000000000000000000000000000000000000000000000000000000000000000000000000000000000000000000000000000000000000000000000000000000000000000000000000000",
      "type": "0x2",
      "transactionHash": "0x5a9a73392e31d3934092c907b4ba2fba0e0530e464f884442f74bf76e26b7683",
      "transactionIndex": "0x3e",
      "blockHash": "0x4e6829cfa8d470ca87e83390e7df2ed9c074f9c483abe9543ff6f42983e53ce2",
      "blockNumber": "0x5b8be6",
      "gasUsed": "0x77e9",
      "effectiveGasPrice": "0xbadea1a55",
      "from": "0x4175902851f6183f1e1d9a72690d10bf6d417488",
      "to": "0x9f4f2a3848529215cacfd9a7d3e3b58b22844125",
      "contractAddress": null
    }
  ],
  "libraries": [],
  "pending": [],
  "returns": {},
  "timestamp": 1716976322,
  "chain": 11155111,
  "commit": "de08a8b"
}