{
  "transactions": [
    {
      "hash": "0x95be14be106d8879dfa1318fc43cff32326a0da31fab198540ae6674510279a8",
      "transactionType": "CALL",
      "contractName": null,
      "contractAddress": "0x2aa0489448bd52de7b9559d0651595b244d3971c",
      "function": "setSourceChains(uint16[],address[])",
      "arguments": [
        "[10003]",
        "[0x2Aa0489448bD52dE7B9559d0651595B244D3971C]"
      ],
      "transaction": {
        "from": "0x4175902851f6183f1e1d9a72690d10bf6d417488",
        "to": "0x2aa0489448bd52de7b9559d0651595b244d3971c",
        "gas": "0x10202",
        "value": "0x0",
        "input": "0x4ce3498a000000000000000000000000000000000000000000000000000000000000004000000000000000000000000000000000000000000000000000000000000000800000000000000000000000000000000000000000000000000000000000000001000000000000000000000000000000000000000000000000000000000000271300000000000000000000000000000000000000000000000000000000000000010000000000000000000000002aa0489448bd52de7b9559d0651595b244d3971c",
        "nonce": "0xb7",
        "chainId": "0xaa36a7"
      },
      "additionalContracts": [],
      "isFixedGasLimit": false
    },
    {
      "hash": "0x755364758c4e73414853bc58ed25b5b301550d9d59fd99550ebe6861c2bc3277",
      "transactionType": "CALL",
      "contractName": null,
      "contractAddress": "0x2aa0489448bd52de7b9559d0651595b244d3971c",
      "function": "setTargetChains(uint16[],address[])",
      "arguments": [
        "[10003]",
        "[0x2Aa0489448bD52dE7B9559d0651595B244D3971C]"
      ],
      "transaction": {
        "from": "0x4175902851f6183f1e1d9a72690d10bf6d417488",
        "to": "0x2aa0489448bd52de7b9559d0651595b244d3971c",
        "gas": "0x1112e",
        "value": "0x0",
        "input": "0xbd7b7460000000000000000000000000000000000000000000000000000000000000004000000000000000000000000000000000000000000000000000000000000000800000000000000000000000000000000000000000000000000000000000000001000000000000000000000000000000000000000000000000000000000000271300000000000000000000000000000000000000000000000000000000000000010000000000000000000000002aa0489448bd52de7b9559d0651595b244d3971c",
        "nonce": "0xb8",
        "chainId": "0xaa36a7"
      },
      "additionalContracts": [],
      "isFixedGasLimit": false
    }
  ],
  "receipts": [
    {
      "status": "0x1",
      "cumulativeGasUsed": "0x19e908d",
      "logs": [],
      "logsBloom": "0x00000000000000000000000000000000000000000000000000000000000000000000000000000000000000000000000000000000000000000000000000000000000000000000000000000000000000000000000000000000000000000000000000000000000000000000000000000000000000000000000000000000000000000000000000000000000000000000000000000000000000000000000000000000000000000000000000000000000000000000000000000000000000000000000000000000000000000000000000000000000000000000000000000000000000000000000000000000000000000000000000000000000000000000000000000000",
      "type": "0x2",
      "transactionHash": "0x95be14be106d8879dfa1318fc43cff32326a0da31fab198540ae6674510279a8",
      "transactionIndex": "0xc1",
      "blockHash": "0xa473ad95df108bcef598a8f546e611e7e44a5da5893fdbd043932e95f5d5f704",
      "blockNumber": "0x5b8c0a",
      "gasUsed": "0xbacc",
      "effectiveGasPrice": "0x99a7085ae",
      "from": "0x4175902851f6183f1e1d9a72690d10bf6d417488",
      "to": "0x2aa0489448bd52de7b9559d0651595b244d3971c",
      "contractAddress": null
    },
    {
      "status": "0x1",
      "cumulativeGasUsed": "0x19f4b58",
      "logs": [],
      "logsBloom": "0x00000000000000000000000000000000000000000000000000000000000000000000000000000000000000000000000000000000000000000000000000000000000000000000000000000000000000000000000000000000000000000000000000000000000000000000000000000000000000000000000000000000000000000000000000000000000000000000000000000000000000000000000000000000000000000000000000000000000000000000000000000000000000000000000000000000000000000000000000000000000000000000000000000000000000000000000000000000000000000000000000000000000000000000000000000000",
      "type": "0x2",
      "transactionHash": "0x755364758c4e73414853bc58ed25b5b301550d9d59fd99550ebe6861c2bc3277",
      "transactionIndex": "0xc2",
      "blockHash": "0xa473ad95df108bcef598a8f546e611e7e44a5da5893fdbd043932e95f5d5f704",
      "blockNumber": "0x5b8c0a",
      "gasUsed": "0xbacb",
      "effectiveGasPrice": "0x99a7085ae",
      "from": "0x4175902851f6183f1e1d9a72690d10bf6d417488",
      "to": "0x2aa0489448bd52de7b9559d0651595b244d3971c",
      "contractAddress": null
    }
  ],
  "libraries": [],
  "pending": [],
  "returns": {},
  "timestamp": 1716976876,
  "chain": 11155111,
  "commit": "de08a8b"
}