{
  "transactions": [
    {
      "hash": "0x26f1af21feb2a70ec7ca8706861579f01417134c97cd23baacfa03165ea7e60f",
      "transactionType": "CALL",
      "contractName": null,
      "contractAddress": "0x9f4f2a3848529215cacfd9a7d3e3b58b22844125",
      "function": "setSourceChains(uint16[],address[])",
      "arguments": [
        "[10003]",
        "[0x9f4f2A3848529215CacFd9A7d3e3B58B22844125]"
      ],
      "transaction": {
        "from": "0x4175902851f6183f1e1d9a72690d10bf6d417488",
        "to": "0x9f4f2a3848529215cacfd9a7d3e3b58b22844125",
        "gas": "0x101e4",
        "value": "0x0",
        "input": "0x4ce3498a000000000000000000000000000000000000000000000000000000000000004000000000000000000000000000000000000000000000000000000000000000800000000000000000000000000000000000000000000000000000000000000001000000000000000000000000000000000000000000000000000000000000271300000000000000000000000000000000000000000000000000000000000000010000000000000000000000009f4f2a3848529215cacfd9a7d3e3b58b22844125",
        "nonce": "0xab",
        "chainId": "0xaa36a7"
      },
      "additionalContracts": [],
      "isFixedGasLimit": false
    },
    {
      "hash": "0xd1f5810f0047b3ebd566bd8f12c53d80b6d145e5a774ae9d9948c060439f5d30",
      "transactionType": "CALL",
      "contractName": null,
      "contractAddress": "0x9f4f2a3848529215cacfd9a7d3e3b58b22844125",
      "function": "setTargetChains(uint16[],address[])",
      "arguments": [
        "[10003]",
        "[0x9f4f2A3848529215CacFd9A7d3e3B58B22844125]"
      ],
      "transaction": {
        "from": "0x4175902851f6183f1e1d9a72690d10bf6d417488",
        "to": "0x9f4f2a3848529215cacfd9a7d3e3b58b22844125",
        "gas": "0x101e3",
        "value": "0x0",
        "input": "0xbd7b7460000000000000000000000000000000000000000000000000000000000000004000000000000000000000000000000000000000000000000000000000000000800000000000000000000000000000000000000000000000000000000000000001000000000000000000000000000000000000000000000000000000000000271300000000000000000000000000000000000000000000000000000000000000010000000000000000000000009f4f2a3848529215cacfd9a7d3e3b58b22844125",
        "nonce": "0xac",
        "chainId": "0xaa36a7"
      },
      "additionalContracts": [],
      "isFixedGasLimit": false
    }
  ],
  "receipts": [
    {
      "status": "0x1",
      "cumulativeGasUsed": "0x79a485",
      "logs": [],
      "logsBloom": "0x00000000000000000000000000000000000000000000000000000000000000000000000000000000000000000000000000000000000000000000000000000000000000000000000000000000000000000000000000000000000000000000000000000000000000000000000000000000000000000000000000000000000000000000000000000000000000000000000000000000000000000000000000000000000000000000000000000000000000000000000000000000000000000000000000000000000000000000000000000000000000000000000000000000000000000000000000000000000000000000000000000000000000000000000000000000",
      "type": "0x2",
      "transactionHash": "0x26f1af21feb2a70ec7ca8706861579f01417134c97cd23baacfa03165ea7e60f",
      "transactionIndex": "0x53",
      "blockHash": "0x889da5bcd4a61bc11dc1d44f90a1943efeb486b60943fa4f68f64122250e6896",
      "blockNumber": "0x5b7cdb",
      "gasUsed": "0xbab6",
      "effectiveGasPrice": "0xec80893a",
      "from": "0x4175902851f6183f1e1d9a72690d10bf6d417488",
      "to": "0x9f4f2a3848529215cacfd9a7d3e3b58b22844125",
      "contractAddress": null
    },
    {
      "status": "0x1",
      "cumulativeGasUsed": "0x7a5f3a",
      "logs": [],
      "logsBloom": "0x00000000000000000000000000000000000000000000000000000000000000000000000000000000000000000000000000000000000000000000000000000000000000000000000000000000000000000000000000000000000000000000000000000000000000000000000000000000000000000000000000000000000000000000000000000000000000000000000000000000000000000000000000000000000000000000000000000000000000000000000000000000000000000000000000000000000000000000000000000000000000000000000000000000000000000000000000000000000000000000000000000000000000000000000000000000",
      "type": "0x2",
      "transactionHash": "0xd1f5810f0047b3ebd566bd8f12c53d80b6d145e5a774ae9d9948c060439f5d30",
      "transactionIndex": "0x54",
      "blockHash": "0x889da5bcd4a61bc11dc1d44f90a1943efeb486b60943fa4f68f64122250e6896",
      "blockNumber": "0x5b7cdb",
      "gasUsed": "0xbab5",
      "effectiveGasPrice": "0xec80893a",
      "from": "0x4175902851f6183f1e1d9a72690d10bf6d417488",
      "to": "0x9f4f2a3848529215cacfd9a7d3e3b58b22844125",
      "contractAddress": null
    }
  ],
  "libraries": [],
  "pending": [],
  "returns": {},
  "timestamp": 1716923977,
  "chain": 11155111,
  "commit": "de08a8b"
}