{
  "transactions": [
    {
      "hash": "0x5f07c311ca28cf24c9dc705c2e88b7e086ae3dbc4b10c99c425becac5889dd5c",
      "transactionType": "CALL",
      "contractName": null,
      "contractAddress": "0x9f4f2a3848529215cacfd9a7d3e3b58b22844125",
      "function": "setSourceChains(uint16[],address[])",
      "arguments": [
        "[10002]",
        "[0x2Aa0489448bD52dE7B9559d0651595B244D3971C]"
      ],
      "transaction": {
        "from": "0x4175902851f6183f1e1d9a72690d10bf6d417488",
        "to": "0x9f4f2a3848529215cacfd9a7d3e3b58b22844125",
        "gas": "0x7f2ca",
        "value": "0x0",
        "input": "0x4ce3498a000000000000000000000000000000000000000000000000000000000000004000000000000000000000000000000000000000000000000000000000000000800000000000000000000000000000000000000000000000000000000000000001000000000000000000000000000000000000000000000000000000000000271200000000000000000000000000000000000000000000000000000000000000010000000000000000000000002aa0489448bd52de7b9559d0651595b244d3971c",
        "nonce": "0x2f",
        "chainId": "0x66eee"
      },
      "additionalContracts": [],
      "isFixedGasLimit": false
    },
    {
      "hash": "0x24336d1ce047045ede679ebad7950aa88356f242cabef372ca31cb2a6b615cfc",
      "transactionType": "CALL",
      "contractName": null,
      "contractAddress": "0x9f4f2a3848529215cacfd9a7d3e3b58b22844125",
      "function": "setTargetChains(uint16[],address[])",
      "arguments": [
        "[10002]",
        "[0x2Aa0489448bD52dE7B9559d0651595B244D3971C]"
      ],
      "transaction": {
        "from": "0x4175902851f6183f1e1d9a72690d10bf6d417488",
        "to": "0x9f4f2a3848529215cacfd9a7d3e3b58b22844125",
        "gas": "0x7f2c8",
        "value": "0x0",
        "input": "0xbd7b7460000000000000000000000000000000000000000000000000000000000000004000000000000000000000000000000000000000000000000000000000000000800000000000000000000000000000000000000000000000000000000000000001000000000000000000000000000000000000000000000000000000000000271200000000000000000000000000000000000000000000000000000000000000010000000000000000000000002aa0489448bd52de7b9559d0651595b244d3971c",
        "nonce": "0x30",
        "chainId": "0x66eee"
      },
      "additionalContracts": [],
      "isFixedGasLimit": false
    }
  ],
  "receipts": [
    {
      "status": "0x1",
      "cumulativeGasUsed": "0x3c632c",
      "logs": [],
      "logsBloom": "0x00000000000000000000000000000000000000000000000000000000000000000000000000000000000000000000000000000000000000000000000000000000000000000000000000000000000000000000000000000000000000000000000000000000000000000000000000000000000000000000000000000000000000000000000000000000000000000000000000000000000000000000000000000000000000000000000000000000000000000000000000000000000000000000000000000000000000000000000000000000000000000000000000000000000000000000000000000000000000000000000000000000000000000000000000000000",
      "type": "0x2",
      "transactionHash": "0x5f07c311ca28cf24c9dc705c2e88b7e086ae3dbc4b10c99c425becac5889dd5c",
      "transactionIndex": "0x3",
      "blockHash": "0x138e0873ebc9404aff7e9b444e63588602df53f65fb07dc71318219dae1025b5",
      "blockNumber": "0x2ed29d0",
      "gasUsed": "0x50f95",
      "effectiveGasPrice": "0x5f5e100",
      "from": "0x4175902851f6183f1e1d9a72690d10bf6d417488",
      "to": "0x9f4f2a3848529215cacfd9a7d3e3b58b22844125",
      "contractAddress": null,
      "gasUsedForL1": "0x497ab",
      "l1BlockNumber": "0x5b8be1"
    },
    {
      "status": "0x1",
      "cumulativeGasUsed": "0x52b76",
      "logs": [],
      "logsBloom": "0x00000000000000000000000000000000000000000000000000000000000000000000000000000000000000000000000000000000000000000000000000000000000000000000000000000000000000000000000000000000000000000000000000000000000000000000000000000000000000000000000000000000000000000000000000000000000000000000000000000000000000000000000000000000000000000000000000000000000000000000000000000000000000000000000000000000000000000000000000000000000000000000000000000000000000000000000000000000000000000000000000000000000000000000000000000000",
      "type": "0x2",
      "transactionHash": "0x24336d1ce047045ede679ebad7950aa88356f242cabef372ca31cb2a6b615cfc",
      "transactionIndex": "0x1",
      "blockHash": "0x4d7668a1c73a61daf88e5e71c6503b735fba4cca4a6b0dbf368874390ad812bb",
      "blockNumber": "0x2ed29d7",
      "gasUsed": "0x52b76",
      "effectiveGasPrice": "0x5f5e100",
      "from": "0x4175902851f6183f1e1d9a72690d10bf6d417488",
      "to": "0x9f4f2a3848529215cacfd9a7d3e3b58b22844125",
      "contractAddress": null,
      "gasUsedForL1": "0x4b38d",
      "l1BlockNumber": "0x5b8be1"
    }
  ],
  "libraries": [],
  "pending": [],
  "returns": {},
  "timestamp": 1716976285,
  "chain": 421614,
  "commit": "de08a8b"
}