{
  "transactions": [
    {
      "hash": "0xb051ae2438c57282deb57444b1fc45cdb6d3891ffbec6010304e912ef6e1ffd2",
      "transactionType": "CALL",
      "contractName": null,
      "contractAddress": "0x3ebb62994e1442e60bbd6ad336bbbf2c16291c5b",
      "function": "setSourceChains(uint16[],address[])",
      "arguments": [
        "[10002]",
        "[0x3eBB62994e1442E60bBd6ad336bbbf2c16291C5B]"
      ],
      "transaction": {
        "from": "0x4175902851f6183f1e1d9a72690d10bf6d417488",
        "to": "0x3ebb62994e1442e60bbd6ad336bbbf2c16291c5b",
        "gas": "0xfa45",
        "value": "0x0",
        "input": "0x4ce3498a000000000000000000000000000000000000000000000000000000000000004000000000000000000000000000000000000000000000000000000000000000800000000000000000000000000000000000000000000000000000000000000001000000000000000000000000000000000000000000000000000000000000271200000000000000000000000000000000000000000000000000000000000000010000000000000000000000003ebb62994e1442e60bbd6ad336bbbf2c16291c5b",
        "nonce": "0x27",
        "chainId": "0x66eee"
      },
      "additionalContracts": [],
      "isFixedGasLimit": false
    },
    {
      "hash": "0xf77909f1c4a59c6b4b11f0337c07bb20e5090851cb6046cfdc12cc438f9956ae",
      "transactionType": "CALL",
      "contractName": null,
      "contractAddress": "0x3ebb62994e1442e60bbd6ad336bbbf2c16291c5b",
      "function": "setTargetChains(uint16[],address[])",
      "arguments": [
        "[10002]",
        "[0x3eBB62994e1442E60bBd6ad336bbbf2c16291C5B]"
      ],
      "transaction": {
        "from": "0x4175902851f6183f1e1d9a72690d10bf6d417488",
        "to": "0x3ebb62994e1442e60bbd6ad336bbbf2c16291c5b",
        "gas": "0xfa49",
        "value": "0x0",
        "input": "0xbd7b7460000000000000000000000000000000000000000000000000000000000000004000000000000000000000000000000000000000000000000000000000000000800000000000000000000000000000000000000000000000000000000000000001000000000000000000000000000000000000000000000000000000000000271200000000000000000000000000000000000000000000000000000000000000010000000000000000000000003ebb62994e1442e60bbd6ad336bbbf2c16291c5b",
        "nonce": "0x28",
        "chainId": "0x66eee"
      },
      "additionalContracts": [],
      "isFixedGasLimit": false
    }
  ],
  "receipts": [
    {
      "status": "0x1",
      "cumulativeGasUsed": "0x8e038",
      "logs": [],
      "logsBloom": "0x00000000000000000000000000000000000000000000000000000000000000000000000000000000000000000000000000000000000000000000000000000000000000000000000000000000000000000000000000000000000000000000000000000000000000000000000000000000000000000000000000000000000000000000000000000000000000000000000000000000000000000000000000000000000000000000000000000000000000000000000000000000000000000000000000000000000000000000000000000000000000000000000000000000000000000000000000000000000000000000000000000000000000000000000000000000",
      "type": "0x2",
      "transactionHash": "0xb051ae2438c57282deb57444b1fc45cdb6d3891ffbec6010304e912ef6e1ffd2",
      "transactionIndex": "0x3",
      "blockHash": "0x334dc09452497f433e59eeb8aba8edb7152ca2306c7686f159ef3f2ba5d5aa4d",
      "blockNumber": "0x2e1e670",
      "gasUsed": "0xbec3",
      "effectiveGasPrice": "0x7a9d290",
      "from": "0x4175902851f6183f1e1d9a72690d10bf6d417488",
      "to": "0x3ebb62994e1442e60bbd6ad336bbbf2c16291c5b",
      "contractAddress": null,
      "gasUsedForL1": "0x40d",
      "l1BlockNumber": "0x5b587c"
    },
    {
      "status": "0x1",
      "cumulativeGasUsed": "0x1bf1b8",
      "logs": [],
      "logsBloom": "0x00000000000000000000000000000000000000000000000000000000000000000000000000000000000000000000000000000000000000000000000000000000000000000000000000000000000000000000000000000000000000000000000000000000000000000000000000000000000000000000000000000000000000000000000000000000000000000000000000000000000000000000000000000000000000000000000000000000000000000000000000000000000000000000000000000000000000000000000000000000000000000000000000000000000000000000000000000000000000000000000000000000000000000000000000000000",
      "type": "0x2",
      "transactionHash": "0xf77909f1c4a59c6b4b11f0337c07bb20e5090851cb6046cfdc12cc438f9956ae",
      "transactionIndex": "0x3",
      "blockHash": "0x4a592f62e11db3538351ffae0ef1b5d350af598c751a3d76fccc57e46a89369e",
      "blockNumber": "0x2e1e676",
      "gasUsed": "0xbeb2",
      "effectiveGasPrice": "0x795fc70",
      "from": "0x4175902851f6183f1e1d9a72690d10bf6d417488",
      "to": "0x3ebb62994e1442e60bbd6ad336bbbf2c16291c5b",
      "contractAddress": null,
      "gasUsedForL1": "0x3fd",
      "l1BlockNumber": "0x5b587c"
    }
  ],
  "libraries": [],
  "pending": [],
  "returns": {},
  "timestamp": 1716791734,
  "chain": 421614,
  "commit": "7bf95a8"
}