{
  "transactions": [
    {
      "hash": "0xdb9ed65c4717673ffa04c293d2d9d4f0405e2a39778a90acfed50381b0543160",
      "transactionType": "CALL",
      "contractName": null,
      "contractAddress": "0x9f4f2a3848529215cacfd9a7d3e3b58b22844125",
      "function": "setSourceChains(uint16[],address[])",
      "arguments": [
        "[10002]",
        "[0x9f4f2A3848529215CacFd9A7d3e3B58B22844125]"
      ],
      "transaction": {
        "from": "0x4175902851f6183f1e1d9a72690d10bf6d417488",
        "to": "0x9f4f2a3848529215cacfd9a7d3e3b58b22844125",
        "gas": "0x11609a",
        "value": "0x0",
        "input": "0x4ce3498a000000000000000000000000000000000000000000000000000000000000004000000000000000000000000000000000000000000000000000000000000000800000000000000000000000000000000000000000000000000000000000000001000000000000000000000000000000000000000000000000000000000000271200000000000000000000000000000000000000000000000000000000000000010000000000000000000000009f4f2a3848529215cacfd9a7d3e3b58b22844125",
        "nonce": "0x2b",
        "chainId": "0x66eee"
      },
      "additionalContracts": [],
      "isFixedGasLimit": false
    },
    {
      "hash": "0x4129a0c895dbf96b6b9ca95443742d2dfc4b9f16637149216d4f184ac2c90bed",
      "transactionType": "CALL",
      "contractName": null,
      "contractAddress": "0x9f4f2a3848529215cacfd9a7d3e3b58b22844125",
      "function": "setTargetChains(uint16[],address[])",
      "arguments": [
        "[10002]",
        "[0x9f4f2A3848529215CacFd9A7d3e3B58B22844125]"
      ],
      "transaction": {
        "from": "0x4175902851f6183f1e1d9a72690d10bf6d417488",
        "to": "0x9f4f2a3848529215cacfd9a7d3e3b58b22844125",
        "gas": "0x11705f",
        "value": "0x0",
        "input": "0xbd7b7460000000000000000000000000000000000000000000000000000000000000004000000000000000000000000000000000000000000000000000000000000000800000000000000000000000000000000000000000000000000000000000000001000000000000000000000000000000000000000000000000000000000000271200000000000000000000000000000000000000000000000000000000000000010000000000000000000000009f4f2a3848529215cacfd9a7d3e3b58b22844125",
        "nonce": "0x2c",
        "chainId": "0x66eee"
      },
      "additionalContracts": [],
      "isFixedGasLimit": false
    }
  ],
  "receipts": [
    {
      "status": "0x1",
      "cumulativeGasUsed": "0xac4f6",
      "logs": [],
      "logsBloom": "0x00000000000000000000000000000000000000000000000000000000000000000000000000000000000000000000000000000000000000000000000000000000000000000000000000000000000000000000000000000000000000000000000000000000000000000000000000000000000000000000000000000000000000000000000000000000000000000000000000000000000000000000000000000000000000000000000000000000000000000000000000000000000000000000000000000000000000000000000000000000000000000000000000000000000000000000000000000000000000000000000000000000000000000000000000000000",
      "type": "0x2",
      "transactionHash": "0xdb9ed65c4717673ffa04c293d2d9d4f0405e2a39778a90acfed50381b0543160",
      "transactionIndex": "0x1",
      "blockHash": "0x122ec6ac03ec2ceecea69f3bbafc7a07e2d289b1b6c19dcc77ea517ccf55a47c",
      "blockNumber": "0x2e9f739",
      "gasUsed": "0xac4f6",
      "effectiveGasPrice": "0x5f5e100",
      "from": "0x4175902851f6183f1e1d9a72690d10bf6d417488",
      "to": "0x9f4f2a3848529215cacfd9a7d3e3b58b22844125",
      "contractAddress": null,
      "gasUsedForL1": "0xa0a40",
      "l1BlockNumber": "0x5b7cdb"
    },
    {
      "status": "0x1",
      "cumulativeGasUsed": "0xb0725",
      "logs": [],
      "logsBloom": "0x00000000000000000000000000000000000000000000000000000000000000000000000000000000000000000000000000000000000000000000000000000000000000000000000000000000000000000000000000000000000000000000000000000000000000000000000000000000000000000000000000000000000000000000000000000000000000000000000000000000000000000000000000000000000000000000000000000000000000000000000000000000000000000000000000000000000000000000000000000000000000000000000000000000000000000000000000000000000000000000000000000000000000000000000000000000",
      "type": "0x2",
      "transactionHash": "0x4129a0c895dbf96b6b9ca95443742d2dfc4b9f16637149216d4f184ac2c90bed",
      "transactionIndex": "0x1",
      "blockHash": "0xd59b16e9f9999d3beb333b0b183114bbd3a1d8e36dcb245b614b981986710080",
      "blockNumber": "0x2e9f73e",
      "gasUsed": "0xb0725",
      "effectiveGasPrice": "0x5f5e100",
      "from": "0x4175902851f6183f1e1d9a72690d10bf6d417488",
      "to": "0x9f4f2a3848529215cacfd9a7d3e3b58b22844125",
      "contractAddress": null,
      "gasUsedForL1": "0xa4c70",
      "l1BlockNumber": "0x5b7cdb"
    }
  ],
  "libraries": [],
  "pending": [],
  "returns": {},
  "timestamp": 1716924001,
  "chain": 421614,
  "commit": "de08a8b"
}