{
  "transactions": [
    {
      "hash": "0x759f24960413f3113b23205ee60e8a349d45f58d2db3a3b075808b2d8960bc33",
      "transactionType": "CALL",
      "contractName": null,
      "contractAddress": "0x2aa0489448bd52de7b9559d0651595b244d3971c",
      "function": "setSourceChains(uint16[],address[])",
      "arguments": [
        "[10002]",
        "[0x2Aa0489448bD52dE7B9559d0651595B244D3971C]"
      ],
      "transaction": {
        "from": "0x4175902851f6183f1e1d9a72690d10bf6d417488",
        "to": "0x2aa0489448bd52de7b9559d0651595b244d3971c",
        "gas": "0x35f9c",
        "value": "0x0",
        "input": "0x4ce3498a000000000000000000000000000000000000000000000000000000000000004000000000000000000000000000000000000000000000000000000000000000800000000000000000000000000000000000000000000000000000000000000001000000000000000000000000000000000000000000000000000000000000271200000000000000000000000000000000000000000000000000000000000000010000000000000000000000002aa0489448bd52de7b9559d0651595b244d3971c",
        "nonce": "0x32",
        "chainId": "0x66eee"
      },
      "additionalContracts": [],
      "isFixedGasLimit": false
    },
    {
      "hash": "0x50d36587d9a74c20dd6e45bfc82cf8b06ab2ae1ab7cde44403aaf09a8ae898c8",
      "transactionType": "CALL",
      "contractName": null,
      "contractAddress": "0x2aa0489448bd52de7b9559d0651595b244d3971c",
      "function": "setTargetChains(uint16[],address[])",
      "arguments": [
        "[10002]",
        "[0x2Aa0489448bD52dE7B9559d0651595B244D3971C]"
      ],
      "transaction": {
        "from": "0x4175902851f6183f1e1d9a72690d10bf6d417488",
        "to": "0x2aa0489448bd52de7b9559d0651595b244d3971c",
        "gas": "0x35d1f",
        "value": "0x0",
        "input": "0xbd7b7460000000000000000000000000000000000000000000000000000000000000004000000000000000000000000000000000000000000000000000000000000000800000000000000000000000000000000000000000000000000000000000000001000000000000000000000000000000000000000000000000000000000000271200000000000000000000000000000000000000000000000000000000000000010000000000000000000000002aa0489448bd52de7b9559d0651595b244d3971c",
        "nonce": "0x33",
        "chainId": "0x66eee"
      },
      "additionalContracts": [],
      "isFixedGasLimit": false
    }
  ],
  "receipts": [
    {
      "status": "0x1",
      "cumulativeGasUsed": "0x19fbc4",
      "logs": [],
      "logsBloom": "0x00000000000000000000000000000000000000000000000000000000000000000000000000000000000000000000000000000000000000000000000000000000000000000000000000000000000000000000000000000000000000000000000000000000000000000000000000000000000000000000000000000000000000000000000000000000000000000000000000000000000000000000000000000000000000000000000000000000000000000000000000000000000000000000000000000000000000000000000000000000000000000000000000000000000000000000000000000000000000000000000000000000000000000000000000000000",
      "type": "0x2",
      "transactionHash": "0x759f24960413f3113b23205ee60e8a349d45f58d2db3a3b075808b2d8960bc33",
      "transactionIndex": "0x3",
      "blockHash": "0x814f71a17a4e6acfe47acbcb04440d91d24db4ed7270606430d22cc70b4e3d65",
      "blockNumber": "0x2ed336b",
      "gasUsed": "0x235f4",
      "effectiveGasPrice": "0x5f5e100",
      "from": "0x4175902851f6183f1e1d9a72690d10bf6d417488",
      "to": "0x2aa0489448bd52de7b9559d0651595b244d3971c",
      "contractAddress": null,
      "gasUsedForL1": "0x17b28",
      "l1BlockNumber": "0x5b8c0b"
    },
    {
      "status": "0x1",
      "cumulativeGasUsed": "0x11d6ae",
      "logs": [],
      "logsBloom": "0x00000000000000000000000000000000000000000000000000000000000000000000000000000000000000000000000000000000000000000000000000000000000000000000000000000000000000000000000000000000000000000000000000000000000000000000000000000000000000000000000000000000000000000000000000000000000000000000000000000000000000000000000000000000000000000000000000000000000000000000000000000000000000000000000000000000000000000000000000000000000000000000000000000000000000000000000000000000000000000000000000000000000000000000000000000000",
      "type": "0x2",
      "transactionHash": "0x50d36587d9a74c20dd6e45bfc82cf8b06ab2ae1ab7cde44403aaf09a8ae898c8",
      "transactionIndex": "0x3",
      "blockHash": "0x4091a52e7b1300f82de95c727db3e6a8134fe4104f0497e1b8e9608b2909951c",
      "blockNumber": "0x2ed336f",
      "gasUsed": "0x22f69",
      "effectiveGasPrice": "0x5f5e100",
      "from": "0x4175902851f6183f1e1d9a72690d10bf6d417488",
      "to": "0x2aa0489448bd52de7b9559d0651595b244d3971c",
      "contractAddress": null,
      "gasUsedForL1": "0x1749e",
      "l1BlockNumber": "0x5b8c0b"
    }
  ],
  "libraries": [],
  "pending": [],
  "returns": {},
  "timestamp": 1716976898,
  "chain": 421614,
  "commit": "de08a8b"
}